{
  "contractName": "Vmeste",
  "abi": [
    {
      "inputs": [],
      "stateMutability": "nonpayable",
      "type": "constructor"
    },
    {
      "anonymous": false,
      "inputs": [
        {
          "indexed": false,
          "internalType": "uint256",
          "name": "eventID",
          "type": "uint256"
        }
      ],
      "name": "NewEventEvent",
      "type": "event"
    },
    {
      "inputs": [],
      "name": "owner",
      "outputs": [
        {
          "internalType": "address",
          "name": "",
          "type": "address"
        }
      ],
      "stateMutability": "view",
      "type": "function",
      "constant": true
    },
    {
      "inputs": [],
      "name": "getLiveEvents",
      "outputs": [
        {
          "components": [
            {
              "internalType": "address payable",
              "name": "creator",
              "type": "address"
            },
            {
              "internalType": "uint256",
              "name": "x",
              "type": "uint256"
            },
            {
              "internalType": "uint256",
              "name": "y",
              "type": "uint256"
            },
            {
              "internalType": "string",
              "name": "name",
              "type": "string"
            },
            {
              "internalType": "string",
              "name": "description",
              "type": "string"
            },
            {
              "internalType": "string",
              "name": "imageURL",
              "type": "string"
            },
            {
              "internalType": "string",
              "name": "addressName",
              "type": "string"
            },
            {
              "internalType": "uint256",
              "name": "price",
              "type": "uint256"
            },
            {
              "internalType": "uint256",
              "name": "ticketsTotal",
              "type": "uint256"
            },
            {
              "internalType": "uint256",
              "name": "ticketsLeft",
              "type": "uint256"
            },
            {
              "internalType": "uint256",
              "name": "timestampStart",
              "type": "uint256"
            },
            {
              "internalType": "bool",
              "name": "verify",
              "type": "bool"
            },
            {
              "internalType": "bool",
              "name": "closed",
              "type": "bool"
            },
            {
              "internalType": "bool",
              "name": "haveTickets",
              "type": "bool"
            },
            {
              "internalType": "uint256",
              "name": "id",
              "type": "uint256"
            }
          ],
          "internalType": "struct Vmeste.Event[]",
          "name": "",
          "type": "tuple[]"
        }
      ],
      "stateMutability": "view",
      "type": "function",
      "constant": true
    },
    {
      "inputs": [
        {
          "internalType": "address",
          "name": "userAddress",
          "type": "address"
        }
      ],
      "name": "getUserEvents",
      "outputs": [
        {
          "components": [
            {
              "internalType": "address payable",
              "name": "creator",
              "type": "address"
            },
            {
              "internalType": "uint256",
              "name": "x",
              "type": "uint256"
            },
            {
              "internalType": "uint256",
              "name": "y",
              "type": "uint256"
            },
            {
              "internalType": "string",
              "name": "name",
              "type": "string"
            },
            {
              "internalType": "string",
              "name": "description",
              "type": "string"
            },
            {
              "internalType": "string",
              "name": "imageURL",
              "type": "string"
            },
            {
              "internalType": "string",
              "name": "addressName",
              "type": "string"
            },
            {
              "internalType": "uint256",
              "name": "price",
              "type": "uint256"
            },
            {
              "internalType": "uint256",
              "name": "ticketsTotal",
              "type": "uint256"
            },
            {
              "internalType": "uint256",
              "name": "ticketsLeft",
              "type": "uint256"
            },
            {
              "internalType": "uint256",
              "name": "timestampStart",
              "type": "uint256"
            },
            {
              "internalType": "bool",
              "name": "verify",
              "type": "bool"
            },
            {
              "internalType": "bool",
              "name": "closed",
              "type": "bool"
            },
            {
              "internalType": "bool",
              "name": "haveTickets",
              "type": "bool"
            },
            {
              "internalType": "uint256",
              "name": "id",
              "type": "uint256"
            }
          ],
          "internalType": "struct Vmeste.Event[]",
          "name": "",
          "type": "tuple[]"
        }
      ],
      "stateMutability": "view",
      "type": "function",
      "constant": true
    },
    {
      "inputs": [
        {
          "internalType": "address",
          "name": "userAddress",
          "type": "address"
        }
      ],
      "name": "getUser",
      "outputs": [
        {
          "components": [
            {
              "internalType": "string",
              "name": "name",
              "type": "string"
            },
            {
              "internalType": "string",
              "name": "avatarURL",
              "type": "string"
            },
            {
              "internalType": "string",
              "name": "info",
              "type": "string"
            },
            {
              "internalType": "uint256",
              "name": "events",
              "type": "uint256"
            },
            {
              "internalType": "uint256",
              "name": "eventsCreated",
              "type": "uint256"
            },
            {
              "internalType": "bool",
              "name": "exists",
              "type": "bool"
            }
          ],
          "internalType": "struct Vmeste.User",
          "name": "",
          "type": "tuple"
        }
      ],
      "stateMutability": "view",
      "type": "function",
      "constant": true
    },
    {
      "inputs": [
        {
          "internalType": "address",
          "name": "userAddress",
          "type": "address"
        }
      ],
      "name": "getReviews",
      "outputs": [
        {
          "components": [
            {
              "internalType": "address",
              "name": "author",
              "type": "address"
            },
            {
              "internalType": "uint8",
              "name": "rate",
              "type": "uint8"
            },
            {
              "internalType": "string",
              "name": "text",
              "type": "string"
            },
            {
              "internalType": "bool",
              "name": "deleted",
              "type": "bool"
            }
          ],
          "internalType": "struct Vmeste.Review[]",
          "name": "",
          "type": "tuple[]"
        }
      ],
      "stateMutability": "view",
      "type": "function",
      "constant": true
    },
    {
      "inputs": [
        {
          "internalType": "address",
          "name": "userAddress",
          "type": "address"
        }
      ],
      "name": "getTickets",
      "outputs": [
        {
          "components": [
            {
              "internalType": "uint256",
              "name": "tokenId",
              "type": "uint256"
            },
            {
              "internalType": "string",
              "name": "ipfsHash",
              "type": "string"
            },
            {
              "internalType": "uint256",
              "name": "eventID",
              "type": "uint256"
            }
          ],
          "internalType": "struct Vmeste.Ticket[]",
          "name": "",
          "type": "tuple[]"
        }
      ],
      "stateMutability": "view",
      "type": "function",
      "constant": true
    },
    {
      "inputs": [
        {
          "internalType": "uint256",
          "name": "eventID",
          "type": "uint256"
        }
      ],
      "name": "getEvent",
      "outputs": [
        {
          "components": [
            {
              "internalType": "address payable",
              "name": "creator",
              "type": "address"
            },
            {
              "internalType": "uint256",
              "name": "x",
              "type": "uint256"
            },
            {
              "internalType": "uint256",
              "name": "y",
              "type": "uint256"
            },
            {
              "internalType": "string",
              "name": "name",
              "type": "string"
            },
            {
              "internalType": "string",
              "name": "description",
              "type": "string"
            },
            {
              "internalType": "string",
              "name": "imageURL",
              "type": "string"
            },
            {
              "internalType": "string",
              "name": "addressName",
              "type": "string"
            },
            {
              "internalType": "uint256",
              "name": "price",
              "type": "uint256"
            },
            {
              "internalType": "uint256",
              "name": "ticketsTotal",
              "type": "uint256"
            },
            {
              "internalType": "uint256",
              "name": "ticketsLeft",
              "type": "uint256"
            },
            {
              "internalType": "uint256",
              "name": "timestampStart",
              "type": "uint256"
            },
            {
              "internalType": "bool",
              "name": "verify",
              "type": "bool"
            },
            {
              "internalType": "bool",
              "name": "closed",
              "type": "bool"
            },
            {
              "internalType": "bool",
              "name": "haveTickets",
              "type": "bool"
            },
            {
              "internalType": "uint256",
              "name": "id",
              "type": "uint256"
            }
          ],
          "internalType": "struct Vmeste.Event",
          "name": "",
          "type": "tuple"
        }
      ],
      "stateMutability": "view",
      "type": "function",
      "constant": true
    },
    {
      "inputs": [
        {
          "internalType": "address",
          "name": "_userAddress",
          "type": "address"
        }
      ],
      "name": "login",
      "outputs": [],
      "stateMutability": "nonpayable",
      "type": "function"
    },
    {
      "inputs": [
        {
          "internalType": "address",
          "name": "userAddress",
          "type": "address"
        },
        {
          "internalType": "string",
          "name": "_name",
          "type": "string"
        },
        {
          "internalType": "string",
          "name": "_avatarURL",
          "type": "string"
        },
        {
          "internalType": "string",
          "name": "_info",
          "type": "string"
        }
      ],
      "name": "updateUserProfile",
      "outputs": [],
      "stateMutability": "nonpayable",
      "type": "function"
    },
    {
      "inputs": [
        {
          "internalType": "address payable",
          "name": "userAddress",
          "type": "address"
        },
        {
          "internalType": "uint256",
          "name": "_ticketsCount",
          "type": "uint256"
        },
        {
          "internalType": "uint256",
          "name": "_x",
          "type": "uint256"
        },
        {
          "internalType": "uint256",
          "name": "_y",
          "type": "uint256"
        },
        {
          "internalType": "uint256",
          "name": "_timestampStart",
          "type": "uint256"
        },
        {
          "internalType": "string[]",
          "name": "info",
          "type": "string[]"
        },
        {
          "internalType": "uint256",
          "name": "_price",
          "type": "uint256"
        },
        {
          "internalType": "bool",
          "name": "_verify",
          "type": "bool"
        }
      ],
      "name": "createEvent",
      "outputs": [
        {
          "internalType": "uint256",
          "name": "",
          "type": "uint256"
        }
      ],
      "stateMutability": "nonpayable",
      "type": "function"
    },
    {
      "inputs": [
        {
          "internalType": "uint256",
          "name": "eventID",
          "type": "uint256"
        },
        {
          "internalType": "string[]",
          "name": "_ticketsHashes",
          "type": "string[]"
        },
        {
          "internalType": "string[]",
          "name": "_verifyHashes",
          "type": "string[]"
        }
      ],
      "name": "addHashes",
      "outputs": [],
      "stateMutability": "nonpayable",
      "type": "function"
    },
    {
      "inputs": [
        {
          "internalType": "uint256",
          "name": "_eventID",
          "type": "uint256"
        }
      ],
      "name": "buyTicket",
      "outputs": [],
      "stateMutability": "payable",
      "type": "function",
      "payable": true
    },
    {
      "inputs": [
        {
          "internalType": "uint256",
          "name": "eventID",
          "type": "uint256"
        },
        {
          "internalType": "string",
          "name": "verifyHash",
          "type": "string"
        }
      ],
      "name": "checkTicket",
      "outputs": [
        {
          "internalType": "bool",
          "name": "",
          "type": "bool"
        }
      ],
      "stateMutability": "view",
      "type": "function",
      "constant": true
    }
  ],
  "bytecode": "0x608060405234801561001057600080fd5b50600780546001600160a01b03191633179055612a56806100326000396000f3fe6080604052600436106100d25760003560e01c806367dd74ca1161007f5780636f77926b116100595780636f77926b146102435780638da5cb5b14610270578063bb6515e4146102a8578063f55ea810146102bd57600080fd5b806367dd74ca146101e35780636c80be79146101f65780636d1884e01461021657600080fd5b806335a6861a116100b057806335a6861a146101645780634ef5a0171461018657806356811138146101b357600080fd5b806304a7c96e146100d75780630ad182bc1461010a578063171e5ba214610137575b600080fd5b3480156100e357600080fd5b506100f76100f236600461227f565b6102dd565b6040519081526020015b60405180910390f35b34801561011657600080fd5b5061012a61012536600461225b565b6106a4565b6040516101019190612796565b34801561014357600080fd5b5061015761015236600461225b565b6107d5565b604051610101919061269a565b34801561017057600080fd5b5061018461017f36600461225b565b610d30565b005b34801561019257600080fd5b506101a66101a136600461225b565b610e6d565b60405161010191906126fc565b3480156101bf57600080fd5b506101d36101ce36600461247b565b610fc7565b6040519015158152602001610101565b6101846101f13660046123f5565b61109c565b34801561020257600080fd5b50610184610211366004612348565b6112ea565b34801561022257600080fd5b506102366102313660046123f5565b61137c565b6040516101019190612809565b34801561024f57600080fd5b5061026361025e36600461225b565b611738565b604051610101919061281c565b34801561027c57600080fd5b50600754610290906001600160a01b031681565b6040516001600160a01b039091168152602001610101565b3480156102b457600080fd5b5061015761198c565b3480156102c957600080fd5b506101846102d836600461240e565b611ed5565b6007546000906001600160a01b031633146102f757600080fd5b6006604051806101e001604052808c6001600160a01b031681526020018a815260200189815260200187876000818110610333576103336129df565b905060200281019061034591906128a1565b8080601f01602080910402602001604051908101604052809392919081815260200183838082843760009201919091525050509082525060200187876001818110610392576103926129df565b90506020028101906103a491906128a1565b8080601f016020809104026020016040519081016040528093929190818152602001838380828437600092019190915250505090825250602001878760028181106103f1576103f16129df565b905060200281019061040391906128a1565b8080601f01602080910402602001604051908101604052809392919081815260200183838082843760009201919091525050509082525060200187876003818110610450576104506129df565b905060200281019061046291906128a1565b8080601f016020809104026020016040519081016040528093929190818152602001838380828437600081840152601f19601f8201169050808301925050505050505081526020018581526020018b81526020018b8152602001888152602001841515815260200160001515815260200160001515815260200160068054905081525090806001815401808255809150506001900390600052602060002090600d020160009091909190915060008201518160000160006101000a8154816001600160a01b0302191690836001600160a01b031602179055506020820151816001015560408201518160020155606082015181600301908051906020019061056b929190611f31565b5060808201518051610587916004840191602090910190611f31565b5060a082015180516105a3916005840191602090910190611f31565b5060c082015180516105bf916006840191602090910190611f31565b5060e082015160078201556101008083015160088301556101208301516009830155610140830151600a830155610160830151600b830180546101808601516101a087015161ffff1990921693151561ff001916939093179215159093029190911762ff0000191662010000921515929092029190911790556101c090910151600c909101556006547f4e6826359f6fdfb93708c0cf5ea5c2c5afe07fdf90217f504d05028ab2fb7dca9061067690600190612919565b60405190815260200160405180910390a160065461069690600190612919565b9a9950505050505050505050565b6007546060906001600160a01b031633146106be57600080fd5b6001600160a01b038216600090815260026020908152604080832080548251818502810185019093528083529193909284015b828210156107c957838290600052602060002090600302016040518060600160405290816000820154815260200160018201805461072e90612973565b80601f016020809104026020016040519081016040528092919081815260200182805461075a90612973565b80156107a75780601f1061077c576101008083540402835291602001916107a7565b820191906000526020600020905b81548152906001019060200180831161078a57829003601f168201915b50505050508152602001600282015481525050815260200190600101906106f1565b5050505090505b919050565b6007546060906001600160a01b031633146107ef57600080fd5b600654600090819067ffffffffffffffff81111561080f5761080f6129f5565b604051908082528060200260200182016040528015610838578160200160208202803683370190505b50905060005b6006548110156108c957846001600160a01b031660068281548110610865576108656129df565b60009182526020909120600d90910201546001600160a01b031614156108b7576001828281518110610899576108996129df565b91151560209283029190910190910152826108b3816129ae565b9350505b806108c1816129ae565b91505061083e565b5060008267ffffffffffffffff8111156108e5576108e56129f5565b60405190808252806020026020018201604052801561099e57816020015b61098b604051806101e0016040528060006001600160a01b0316815260200160008152602001600081526020016060815260200160608152602001606081526020016060815260200160008152602001600081526020016000815260200160008152602001600015158152602001600015158152602001600015158152602001600081525090565b8152602001906001900390816109035790505b5090506000805b600654811015610d25578381815181106109c1576109c16129df565b602002602001015115610d1357600681815481106109e1576109e16129df565b90600052602060002090600d0201604051806101e00160405290816000820160009054906101000a90046001600160a01b03166001600160a01b03166001600160a01b031681526020016001820154815260200160028201548152602001600382018054610a4e90612973565b80601f0160208091040260200160405190810160405280929190818152602001828054610a7a90612973565b8015610ac75780601f10610a9c57610100808354040283529160200191610ac7565b820191906000526020600020905b815481529060010190602001808311610aaa57829003601f168201915b50505050508152602001600482018054610ae090612973565b80601f0160208091040260200160405190810160405280929190818152602001828054610b0c90612973565b8015610b595780601f10610b2e57610100808354040283529160200191610b59565b820191906000526020600020905b815481529060010190602001808311610b3c57829003601f168201915b50505050508152602001600582018054610b7290612973565b80601f0160208091040260200160405190810160405280929190818152602001828054610b9e90612973565b8015610beb5780601f10610bc057610100808354040283529160200191610beb565b820191906000526020600020905b815481529060010190602001808311610bce57829003601f168201915b50505050508152602001600682018054610c0490612973565b80601f0160208091040260200160405190810160405280929190818152602001828054610c3090612973565b8015610c7d5780601f10610c5257610100808354040283529160200191610c7d565b820191906000526020600020905b815481529060010190602001808311610c6057829003601f168201915b5050509183525050600782015460208201526008820154604082015260098201546060820152600a8201546080820152600b82015460ff808216151560a08401526101008083048216151560c08501526201000090920416151560e0830152600c909201549101528351849084908110610cf957610cf96129df565b60200260200101819052508180610d0f906129ae565b9250505b80610d1d816129ae565b9150506109a5565b509095945050505050565b6007546001600160a01b03163314610d4757600080fd5b6001600160a01b03811660009081526020819052604090206005015460ff16610e6a576040805161010081018252600460c082019081527f557365720000000000000000000000000000000000000000000000000000000060e0830152815281516020818101845260008083528184019290925283518082018552828152838501526060830182905260808301829052600160a08401526001600160a01b03851682528181529290208151805192939192610e059284920190611f31565b506020828101518051610e1e9260018501920190611f31565b5060408201518051610e3a916002840191602090910190611f31565b50606082015160038201556080820151600482015560a0909101516005909101805460ff19169115159190911790555b50565b6007546060906001600160a01b03163314610e8757600080fd5b6001600160a01b038216600090815260016020908152604080832080548251818502810185019093528083529193909284015b828210156107c9576000848152602090819020604080516080810182526003860290920180546001600160a01b038116845274010000000000000000000000000000000000000000900460ff169383019390935260018301805492939291840191610f2490612973565b80601f0160208091040260200160405190810160405280929190818152602001828054610f5090612973565b8015610f9d5780601f10610f7257610100808354040283529160200191610f9d565b820191906000526020600020905b815481529060010190602001808311610f8057829003601f168201915b50505091835250506002919091015460ff1615156020918201529082526001929092019101610eba565b6000805b60068481548110610fde57610fde6129df565b90600052602060002090600d020160080154811015611090578260405160200161100891906125e2565b60408051601f19818403018152918152815160209283012060008781526003909352912080548390811061103e5761103e6129df565b9060005260206000200160405160200161105891906125fe565b60405160208183030381529060405280519060200120141561107e576001915050611096565b80611088816129ae565b915050610fcb565b50600090505b92915050565b336000908152600260209081526040808320815160608101835260055481528585526004845291909320600680549293840192869081106110df576110df6129df565b90600052602060002090600d02016009015460068681548110611104576111046129df565b90600052602060002090600d0201600801546111209190612919565b81548110611130576111306129df565b90600052602060002001805461114590612973565b80601f016020809104026020016040519081016040528092919081815260200182805461117190612973565b80156111be5780601f10611193576101008083540402835291602001916111be565b820191906000526020600020905b8154815290600101906020018083116111a157829003601f168201915b5050509183525050602090810184905282546001818101855560009485529382902083516003909202019081558282015180519394919361120793928501929190910190611f31565b506040919091015160029091015560058054906000611225836129ae565b91905055506006818154811061123d5761123d6129df565b6000918252602082206009600d909202010180549161125b8361295c565b919050555060068181548110611273576112736129df565b60009182526020909120600d9091020154600680546001600160a01b03909216916108fc9190849081106112a9576112a96129df565b90600052602060002090600d0201600701549081150290604051600060405180830381858888f193505050501580156112e6573d6000803e3d6000fd5b5050565b6007546001600160a01b0316331461130157600080fd5b6001600160a01b0387166000908152602081905260409020611324908787611fb5565b506001600160a01b038716600090815260208190526040902061134b906001018585611fb5565b506001600160a01b0387166000908152602081905260409020611372906002018383611fb5565b5050505050505050565b611404604051806101e0016040528060006001600160a01b0316815260200160008152602001600081526020016060815260200160608152602001606081526020016060815260200160008152602001600081526020016000815260200160008152602001600015158152602001600015158152602001600015158152602001600081525090565b6007546001600160a01b0316331461141b57600080fd5b6006828154811061142e5761142e6129df565b90600052602060002090600d0201604051806101e00160405290816000820160009054906101000a90046001600160a01b03166001600160a01b03166001600160a01b03168152602001600182015481526020016002820154815260200160038201805461149b90612973565b80601f01602080910402602001604051908101604052809291908181526020018280546114c790612973565b80156115145780601f106114e957610100808354040283529160200191611514565b820191906000526020600020905b8154815290600101906020018083116114f757829003601f168201915b5050505050815260200160048201805461152d90612973565b80601f016020809104026020016040519081016040528092919081815260200182805461155990612973565b80156115a65780601f1061157b576101008083540402835291602001916115a6565b820191906000526020600020905b81548152906001019060200180831161158957829003601f168201915b505050505081526020016005820180546115bf90612973565b80601f01602080910402602001604051908101604052809291908181526020018280546115eb90612973565b80156116385780601f1061160d57610100808354040283529160200191611638565b820191906000526020600020905b81548152906001019060200180831161161b57829003601f168201915b5050505050815260200160068201805461165190612973565b80601f016020809104026020016040519081016040528092919081815260200182805461167d90612973565b80156116ca5780601f1061169f576101008083540402835291602001916116ca565b820191906000526020600020905b8154815290600101906020018083116116ad57829003601f168201915b5050509183525050600782015460208201526008820154604082015260098201546060820152600a8201546080820152600b82015460ff808216151560a08401526101008083048216151560c08501526201000090920416151560e0830152600c9092015491015292915050565b6117736040518060c0016040528060608152602001606081526020016060815260200160008152602001600081526020016000151581525090565b6007546001600160a01b0316331461178a57600080fd5b6001600160a01b03821660009081526020819052604090819020815160c081019092528054829082906117bc90612973565b80601f01602080910402602001604051908101604052809291908181526020018280546117e890612973565b80156118355780601f1061180a57610100808354040283529160200191611835565b820191906000526020600020905b81548152906001019060200180831161181857829003601f168201915b5050505050815260200160018201805461184e90612973565b80601f016020809104026020016040519081016040528092919081815260200182805461187a90612973565b80156118c75780601f1061189c576101008083540402835291602001916118c7565b820191906000526020600020905b8154815290600101906020018083116118aa57829003601f168201915b505050505081526020016002820180546118e090612973565b80601f016020809104026020016040519081016040528092919081815260200182805461190c90612973565b80156119595780601f1061192e57610100808354040283529160200191611959565b820191906000526020600020905b81548152906001019060200180831161193c57829003601f168201915b5050509183525050600382015460208201526004820154604082015260059091015460ff16151560609091015292915050565b6007546060906001600160a01b031633146119a657600080fd5b600654600090819067ffffffffffffffff8111156119c6576119c66129f5565b6040519080825280602002602001820160405280156119ef578160200160208202803683370190505b50905060005b600654811015611a6f574260068281548110611a1357611a136129df565b90600052602060002090600d0201600a01541115611a5d576001828281518110611a3f57611a3f6129df565b9115156020928302919091019091015282611a59816129ae565b9350505b80611a67816129ae565b9150506119f5565b5060008267ffffffffffffffff811115611a8b57611a8b6129f5565b604051908082528060200260200182016040528015611b4457816020015b611b31604051806101e0016040528060006001600160a01b0316815260200160008152602001600081526020016060815260200160608152602001606081526020016060815260200160008152602001600081526020016000815260200160008152602001600015158152602001600015158152602001600015158152602001600081525090565b815260200190600190039081611aa95790505b5090506000805b600654811015611ecb57838181518110611b6757611b676129df565b602002602001015115611eb95760068181548110611b8757611b876129df565b90600052602060002090600d0201604051806101e00160405290816000820160009054906101000a90046001600160a01b03166001600160a01b03166001600160a01b031681526020016001820154815260200160028201548152602001600382018054611bf490612973565b80601f0160208091040260200160405190810160405280929190818152602001828054611c2090612973565b8015611c6d5780601f10611c4257610100808354040283529160200191611c6d565b820191906000526020600020905b815481529060010190602001808311611c5057829003601f168201915b50505050508152602001600482018054611c8690612973565b80601f0160208091040260200160405190810160405280929190818152602001828054611cb290612973565b8015611cff5780601f10611cd457610100808354040283529160200191611cff565b820191906000526020600020905b815481529060010190602001808311611ce257829003601f168201915b50505050508152602001600582018054611d1890612973565b80601f0160208091040260200160405190810160405280929190818152602001828054611d4490612973565b8015611d915780601f10611d6657610100808354040283529160200191611d91565b820191906000526020600020905b815481529060010190602001808311611d7457829003601f168201915b50505050508152602001600682018054611daa90612973565b80601f0160208091040260200160405190810160405280929190818152602001828054611dd690612973565b8015611e235780601f10611df857610100808354040283529160200191611e23565b820191906000526020600020905b815481529060010190602001808311611e0657829003601f168201915b5050509183525050600782015460208201526008820154604082015260098201546060820152600a8201546080820152600b82015460ff808216151560a08401526101008083048216151560c08501526201000090920416151560e0830152600c909201549101528351849084908110611e9f57611e9f6129df565b60200260200101819052508180611eb5906129ae565b9250505b80611ec3816129ae565b915050611b4b565b5090935050505090565b6007546001600160a01b03163314611eec57600080fd5b60008381526004602090815260409091208351611f0b92850190612029565b5060008381526003602090815260409091208251611f2b92840190612029565b50505050565b828054611f3d90612973565b90600052602060002090601f016020900481019282611f5f5760008555611fa5565b82601f10611f7857805160ff1916838001178555611fa5565b82800160010185558215611fa5579182015b82811115611fa5578251825591602001919060010190611f8a565b50611fb1929150612082565b5090565b828054611fc190612973565b90600052602060002090601f016020900481019282611fe35760008555611fa5565b82601f10611ffc5782800160ff19823516178555611fa5565b82800160010185558215611fa5579182015b82811115611fa557823582559160200191906001019061200e565b828054828255906000526020600020908101928215612076579160200282015b828111156120765782518051612066918491602090910190611f31565b5091602001919060010190612049565b50611fb1929150612097565b5b80821115611fb15760008155600101612083565b80821115611fb15760006120ab82826120b4565b50600101612097565b5080546120c090612973565b6000825580601f106120d0575050565b601f016020900490600052602060002090810190610e6a9190612082565b600082601f8301126120ff57600080fd5b8135602067ffffffffffffffff8083111561211c5761211c6129f5565b8260051b61212b8382016128e8565b8481528381019087850183890186018a101561214657600080fd5b60009350835b8781101561218357813586811115612162578586fd5b6121708c89838e01016121eb565b855250928601929086019060010161214c565b50909998505050505050505050565b803580151581146107d057600080fd5b60008083601f8401126121b457600080fd5b50813567ffffffffffffffff8111156121cc57600080fd5b6020830191508360208285010111156121e457600080fd5b9250929050565b600082601f8301126121fc57600080fd5b813567ffffffffffffffff811115612216576122166129f5565b612229601f8201601f19166020016128e8565b81815284602083860101111561223e57600080fd5b816020850160208301376000918101602001919091529392505050565b60006020828403121561226d57600080fd5b813561227881612a0b565b9392505050565b60008060008060008060008060006101008a8c03121561229e57600080fd5b89356122a981612a0b565b985060208a0135975060408a0135965060608a0135955060808a0135945060a08a013567ffffffffffffffff808211156122e257600080fd5b818c0191508c601f8301126122f657600080fd5b81358181111561230557600080fd5b8d60208260051b850101111561231a57600080fd5b60208301965080955050505060c08a0135915061233960e08b01612192565b90509295985092959850929598565b60008060008060008060006080888a03121561236357600080fd5b873561236e81612a0b565b9650602088013567ffffffffffffffff8082111561238b57600080fd5b6123978b838c016121a2565b909850965060408a01359150808211156123b057600080fd5b6123bc8b838c016121a2565b909650945060608a01359150808211156123d557600080fd5b506123e28a828b016121a2565b989b979a50959850939692959293505050565b60006020828403121561240757600080fd5b5035919050565b60008060006060848603121561242357600080fd5b83359250602084013567ffffffffffffffff8082111561244257600080fd5b61244e878388016120ee565b9350604086013591508082111561246457600080fd5b50612471868287016120ee565b9150509250925092565b6000806040838503121561248e57600080fd5b82359150602083013567ffffffffffffffff8111156124ac57600080fd5b6124b8858286016121eb565b9150509250929050565b600081518084526124da816020860160208601612930565b601f01601f19169290920160200192915050565b80516001600160a01b0316825260006101e06020830151602085015260408301516040850152606083015181606086015261252b828601826124c2565b9150506080830151848203608086015261254582826124c2565b91505060a083015184820360a086015261255f82826124c2565b91505060c083015184820360c086015261257982826124c2565b60e0858101519087015261010080860151908701526101208086015190870152610140808601519087015261016080860151151590870152610180808601511515908701526101a0808601511515908701526101c0948501519490950193909352509192915050565b600082516125f4818460208701612930565b9190910192915050565b600080835481600182811c91508083168061261a57607f831692505b602080841082141561263a57634e487b7160e01b86526022600452602486fd5b81801561264e576001811461265f5761268c565b60ff1986168952848901965061268c565b60008a81526020902060005b868110156126845781548b82015290850190830161266b565b505084890196505b509498975050505050505050565b6000602080830181845280855180835260408601915060408160051b870101925083870160005b828110156126ef57603f198886030184526126dd8583516124ee565b945092850192908501906001016126c1565b5092979650505050505050565b60006020808301818452808551808352604092508286019150828160051b87010184880160005b8381101561278857603f19898403018552815160806001600160a01b03825116855260ff898301511689860152878201518189870152612765828701826124c2565b606093840151151596909301959095525094870194925090860190600101612723565b509098975050505050505050565b60006020808301818452808551808352604092508286019150828160051b87010184880160005b8381101561278857603f19898403018552815160608151855288820151818a8701526127eb828701826124c2565b928901519589019590955250948701949250908601906001016127bd565b60208152600061227860208301846124ee565b602081526000825160c0602084015261283860e08401826124c2565b90506020840151601f198085840301604086015261285683836124c2565b925060408601519150808584030160608601525061287482826124c2565b91505060608401516080840152608084015160a084015260a0840151151560c08401528091505092915050565b6000808335601e198436030181126128b857600080fd5b83018035915067ffffffffffffffff8211156128d357600080fd5b6020019150368190038213156121e457600080fd5b604051601f8201601f1916810167ffffffffffffffff81118282101715612911576129116129f5565b604052919050565b60008282101561292b5761292b6129c9565b500390565b60005b8381101561294b578181015183820152602001612933565b83811115611f2b5750506000910152565b60008161296b5761296b6129c9565b506000190190565b600181811c9082168061298757607f821691505b602082108114156129a857634e487b7160e01b600052602260045260246000fd5b50919050565b60006000198214156129c2576129c26129c9565b5060010190565b634e487b7160e01b600052601160045260246000fd5b634e487b7160e01b600052603260045260246000fd5b634e487b7160e01b600052604160045260246000fd5b6001600160a01b0381168114610e6a57600080fdfea2646970667358221220ea25c6adbad1c4c06cef5d3c01417a1c9ebe4a281f1a60c16f9f486fb4cce45d64736f6c63430008070033",
  "immutableReferences": {},
  "source": "pragma solidity ^0.8.7;\r\n\r\ncontract Vmeste {\r\n\r\n    struct User {\r\n        string name;\r\n        string avatarURL;\r\n        string info;\r\n        uint events;\r\n        uint eventsCreated;\r\n        bool exists;\r\n    }\r\n\r\n    struct Event {\r\n        address payable creator;\r\n\r\n        uint x;\r\n        uint y;\r\n\r\n        string name;\r\n        string description;\r\n        string imageURL;\r\n        string addressName;\r\n\r\n        uint price;\r\n\r\n        uint ticketsTotal;\r\n        uint ticketsLeft;\r\n\r\n        //uint timestampCreated;\r\n        uint timestampStart;\r\n\r\n        bool verify;\r\n\r\n        bool closed;\r\n        \r\n        bool haveTickets;\r\n        \r\n        uint id;\r\n    }\r\n\r\n    struct Review {\r\n        address author;\r\n        uint8 rate;\r\n        string text;\r\n        bool deleted;\r\n    }\r\n\r\n    struct Ticket {\r\n        uint tokenId;\r\n        string ipfsHash;\r\n        uint eventID;\r\n    }\r\n\r\n    mapping(address => User) private users;\r\n\r\n    mapping(address => Review[]) private reviews;\r\n\r\n    mapping(address => Ticket[]) private tickets;\r\n    \r\n    mapping(uint => string[]) private verifyHashes;\r\n    mapping(uint => string[]) private ticketsHashes;\r\n\r\n    uint private ticketsCount;\r\n\r\n    Event[] private events;\r\n\r\n    address public owner;\r\n\r\n    event NewEventEvent(uint eventID);\r\n\r\n    modifier onlyOwner () {\r\n        require(msg.sender == owner);\r\n        _;\r\n    }\r\n\r\n    constructor() {\r\n        owner = msg.sender;\r\n    }\r\n\r\n    function getLiveEvents() public onlyOwner view returns (Event[] memory) {\r\n        uint length = 0;\r\n\r\n        bool[] memory checker = new bool[](events.length);\r\n\r\n        for (uint i = 0; i < events.length; i++) {\r\n            if (events[i].timestampStart > block.timestamp) {\r\n                checker[i] = true;\r\n                length++;\r\n            }\r\n        }\r\n\r\n        Event[] memory _events = new Event[](length);\r\n        uint j = 0;\r\n        for (uint i = 0; i < events.length; i++) {\r\n            if (checker[i]) {\r\n                _events[j] = events[i];\r\n                j++;\r\n            }\r\n        }\r\n        return _events;\r\n    }\r\n\r\n    function getUserEvents(address userAddress) public onlyOwner view returns (Event[] memory) {\r\n        uint length = 0;\r\n\r\n        bool[] memory checker = new bool[](events.length);\r\n\r\n        for (uint i = 0; i < events.length; i++) {\r\n            if (events[i].creator == userAddress) {\r\n                checker[i] = true;\r\n                length++;\r\n            }\r\n        }\r\n\r\n        Event[] memory _events = new Event[](length);\r\n        uint j = 0;\r\n        for (uint i = 0; i < events.length; i++) {\r\n            if (checker[i]) {\r\n                _events[j] = events[i];\r\n                j++;\r\n            }\r\n        }\r\n        return _events;\r\n    }\r\n\r\n    function getUser(address userAddress) public onlyOwner view returns (User memory) {\r\n        return users[userAddress];\r\n    }\r\n\r\n    function getReviews(address userAddress) public onlyOwner view returns (Review[] memory) {\r\n        return reviews[userAddress];\r\n    }\r\n\r\n    function getTickets(address userAddress) public onlyOwner view returns (Ticket[] memory) {\r\n        return tickets[userAddress];\r\n    }\r\n\r\n    function getEvent(uint eventID) public onlyOwner view returns (Event memory) {\r\n        return events[eventID];\r\n    }\r\n\r\n    function login(address _userAddress) onlyOwner public {\r\n        if (!users[_userAddress].exists) {\r\n            users[_userAddress] = User({\r\n            name : \"User\",\r\n            avatarURL : \"\",\r\n            info : \"\",\r\n            events : 0,\r\n            eventsCreated : 0,\r\n            exists : true\r\n            });\r\n        }\r\n    }\r\n\r\n\r\n    function updateUserProfile(\r\n        address userAddress,\r\n        string calldata _name,\r\n        string calldata _avatarURL,\r\n        string calldata _info\r\n    ) public onlyOwner {\r\n        users[userAddress].name = _name;\r\n        users[userAddress].avatarURL = _avatarURL;\r\n        users[userAddress].info = _info;\r\n    }\r\n\r\n    function createEvent(\r\n        address payable userAddress,\r\n        uint _ticketsCount,\r\n        uint _x,\r\n        uint _y,\r\n        uint _timestampStart,\r\n        string[] calldata info,\r\n        uint _price,\r\n        bool _verify\r\n    ) public onlyOwner returns(uint) {\r\n        \r\n        // string calldata _name,\r\n        // string calldata _addressName,\r\n        // string calldata _description,\r\n        // string calldata _imageURL,\r\n        events.push( Event({\r\n            id: events.length,\r\n            creator : userAddress,\r\n            x : _x,\r\n            y : _y,\r\n\r\n            name : info[0],\r\n            description : info[1],\r\n            imageURL : info[2],\r\n            addressName : info[3],\r\n\r\n            price : _price,\r\n\r\n            ticketsTotal : _ticketsCount,\r\n            ticketsLeft : _ticketsCount,\r\n\r\n            //timestampCreated : block.timestamp,\r\n            timestampStart : _timestampStart,\r\n\r\n            verify : _verify,\r\n\r\n            closed : false,\r\n            \r\n            haveTickets: false\r\n        }));\r\n\r\n        emit NewEventEvent(events.length - 1);\r\n        \r\n        return events.length - 1;\r\n    }\r\n    \r\n    function addHashes(uint eventID, string[] memory _ticketsHashes, string[] memory _verifyHashes) public onlyOwner {\r\n        ticketsHashes[eventID] = _ticketsHashes;\r\n        verifyHashes[eventID] = _verifyHashes;\r\n    }\r\n\r\n    function buyTicket(uint _eventID) public payable {\r\n        tickets[msg.sender].push(Ticket({\r\n            tokenId : ticketsCount,\r\n            ipfsHash : ticketsHashes[_eventID][events[_eventID].ticketsTotal - events[_eventID].ticketsLeft],\r\n            eventID : _eventID\r\n        }));\r\n        ticketsCount++;\r\n\r\n        events[_eventID].ticketsLeft--;\r\n\r\n        \r\n        events[_eventID].creator.transfer(events[_eventID].price);\r\n        \r\n    }\r\n\r\n    function checkTicket(uint eventID, string memory verifyHash) public view returns(bool) {\r\n        for (uint i = 0;i < events[eventID].ticketsTotal;i++) {\r\n            if (keccak256(abi.encodePacked(verifyHashes[eventID][i])) == keccak256(abi.encodePacked(verifyHash))) return true;\r\n        }\r\n        return false;\r\n    }\r\n\r\n\r\n}",
  "sourcePath": "C:\\Users\\savva\\Documents\\WebProjects\\vmeste_v2.0\\contracts\\Vmeste.sol",
  "compiler": {
    "name": "solc",
    "version": "0.8.7+commit.e28d00a7.Emscripten.clang"
  },
  "schemaVersion": "3.4.3",
  "updatedAt": "2021-11-06T12:11:09.999Z",
  "networkType": "ethereum",
  "devdoc": {
    "kind": "dev",
    "methods": {},
    "version": 1
  },
  "userdoc": {
    "kind": "user",
    "methods": {},
    "version": 1
  }
}